{
  "_format": "hh-sol-artifact-1",
  "contractName": "Tickets",
  "sourceName": "contracts/tickets.sol",
  "abi": [
    {
      "inputs": [],
      "stateMutability": "payable",
      "type": "constructor"
    },
    {
      "inputs": [],
      "name": "ApprovalCallerNotOwnerNorApproved",
      "type": "error"
    },
    {
      "inputs": [],
      "name": "ApprovalQueryForNonexistentToken",
      "type": "error"
    },
    {
      "inputs": [],
      "name": "BalanceQueryForZeroAddress",
      "type": "error"
    },
    {
      "inputs": [],
      "name": "MintERC2309QuantityExceedsLimit",
      "type": "error"
    },
    {
      "inputs": [],
      "name": "MintToZeroAddress",
      "type": "error"
    },
    {
      "inputs": [],
      "name": "MintZeroQuantity",
      "type": "error"
    },
    {
      "inputs": [],
      "name": "OwnerQueryForNonexistentToken",
      "type": "error"
    },
    {
      "inputs": [],
      "name": "OwnershipNotInitializedForExtraData",
      "type": "error"
    },
    {
      "inputs": [],
      "name": "TransferCallerNotOwnerNorApproved",
      "type": "error"
    },
    {
      "inputs": [],
      "name": "TransferFromIncorrectOwner",
      "type": "error"
    },
    {
      "inputs": [],
      "name": "TransferToNonERC721ReceiverImplementer",
      "type": "error"
    },
    {
      "inputs": [],
      "name": "TransferToZeroAddress",
      "type": "error"
    },
    {
      "inputs": [],
      "name": "URIQueryForNonexistentToken",
      "type": "error"
    },
    {
      "anonymous": false,
      "inputs": [
        {
          "indexed": true,
          "internalType": "address",
          "name": "owner",
          "type": "address"
        },
        {
          "indexed": true,
          "internalType": "address",
          "name": "approved",
          "type": "address"
        },
        {
          "indexed": true,
          "internalType": "uint256",
          "name": "tokenId",
          "type": "uint256"
        }
      ],
      "name": "Approval",
      "type": "event"
    },
    {
      "anonymous": false,
      "inputs": [
        {
          "indexed": true,
          "internalType": "address",
          "name": "owner",
          "type": "address"
        },
        {
          "indexed": true,
          "internalType": "address",
          "name": "operator",
          "type": "address"
        },
        {
          "indexed": false,
          "internalType": "bool",
          "name": "approved",
          "type": "bool"
        }
      ],
      "name": "ApprovalForAll",
      "type": "event"
    },
    {
      "anonymous": false,
      "inputs": [
        {
          "indexed": true,
          "internalType": "uint256",
          "name": "fromTokenId",
          "type": "uint256"
        },
        {
          "indexed": false,
          "internalType": "uint256",
          "name": "toTokenId",
          "type": "uint256"
        },
        {
          "indexed": true,
          "internalType": "address",
          "name": "from",
          "type": "address"
        },
        {
          "indexed": true,
          "internalType": "address",
          "name": "to",
          "type": "address"
        }
      ],
      "name": "ConsecutiveTransfer",
      "type": "event"
    },
    {
      "anonymous": false,
      "inputs": [
        {
          "indexed": true,
          "internalType": "address",
          "name": "previousOwner",
          "type": "address"
        },
        {
          "indexed": true,
          "internalType": "address",
          "name": "newOwner",
          "type": "address"
        }
      ],
      "name": "OwnershipTransferred",
      "type": "event"
    },
    {
      "anonymous": false,
      "inputs": [
        {
          "indexed": true,
          "internalType": "address",
          "name": "from",
          "type": "address"
        },
        {
          "indexed": true,
          "internalType": "address",
          "name": "to",
          "type": "address"
        },
        {
          "indexed": true,
          "internalType": "uint256",
          "name": "tokenId",
          "type": "uint256"
        }
      ],
      "name": "Transfer",
      "type": "event"
    },
    {
      "inputs": [],
      "name": "AllowListSale",
      "outputs": [
        {
          "internalType": "bool",
          "name": "",
          "type": "bool"
        }
      ],
      "stateMutability": "view",
      "type": "function"
    },
    {
      "inputs": [
        {
          "internalType": "uint256",
          "name": "quantity_",
          "type": "uint256"
        }
      ],
      "name": "AllowListmint",
      "outputs": [],
      "stateMutability": "payable",
      "type": "function"
    },
    {
      "inputs": [],
      "name": "Revealed",
      "outputs": [
        {
          "internalType": "bool",
          "name": "",
          "type": "bool"
        }
      ],
      "stateMutability": "view",
      "type": "function"
    },
    {
      "inputs": [
        {
          "internalType": "address",
          "name": "",
          "type": "address"
        }
      ],
      "name": "WalletMints",
      "outputs": [
        {
          "internalType": "uint256",
          "name": "",
          "type": "uint256"
        }
      ],
      "stateMutability": "view",
      "type": "function"
    },
    {
      "inputs": [
        {
          "internalType": "address",
          "name": "to",
          "type": "address"
        },
        {
          "internalType": "uint256",
          "name": "tokenId",
          "type": "uint256"
        }
      ],
      "name": "approve",
      "outputs": [],
      "stateMutability": "payable",
      "type": "function"
    },
    {
      "inputs": [
        {
          "internalType": "address",
          "name": "owner",
          "type": "address"
        }
      ],
      "name": "balanceOf",
      "outputs": [
        {
          "internalType": "uint256",
          "name": "",
          "type": "uint256"
        }
      ],
      "stateMutability": "view",
      "type": "function"
    },
    {
      "inputs": [
        {
          "internalType": "uint256",
          "name": "tokenId",
          "type": "uint256"
        }
      ],
      "name": "burn",
      "outputs": [],
      "stateMutability": "nonpayable",
      "type": "function"
    },
    {
      "inputs": [
        {
          "internalType": "uint256",
          "name": "tokenId",
          "type": "uint256"
        }
      ],
      "name": "getApproved",
      "outputs": [
        {
          "internalType": "address",
          "name": "",
          "type": "address"
        }
      ],
      "stateMutability": "view",
      "type": "function"
    },
    {
      "inputs": [
        {
          "internalType": "address",
          "name": "owner",
          "type": "address"
        },
        {
          "internalType": "address",
          "name": "operator",
          "type": "address"
        }
      ],
      "name": "isApprovedForAll",
      "outputs": [
        {
          "internalType": "bool",
          "name": "",
          "type": "bool"
        }
      ],
      "stateMutability": "view",
      "type": "function"
    },
    {
      "inputs": [
        {
          "internalType": "uint256",
          "name": "quantity_",
          "type": "uint256"
        }
      ],
      "name": "mint",
      "outputs": [],
      "stateMutability": "payable",
      "type": "function"
    },
    {
      "inputs": [],
      "name": "name",
      "outputs": [
        {
          "internalType": "string",
          "name": "",
          "type": "string"
        }
      ],
      "stateMutability": "view",
      "type": "function"
    },
    {
      "inputs": [],
      "name": "owner",
      "outputs": [
        {
          "internalType": "address",
          "name": "",
          "type": "address"
        }
      ],
      "stateMutability": "view",
      "type": "function"
    },
    {
      "inputs": [
        {
          "internalType": "uint256",
          "name": "tokenId",
          "type": "uint256"
        }
      ],
      "name": "ownerOf",
      "outputs": [
        {
          "internalType": "address",
          "name": "",
          "type": "address"
        }
      ],
      "stateMutability": "view",
      "type": "function"
    },
    {
      "inputs": [],
      "name": "renounceOwnership",
      "outputs": [],
      "stateMutability": "nonpayable",
      "type": "function"
    },
    {
      "inputs": [
        {
          "internalType": "address",
          "name": "from",
          "type": "address"
        },
        {
          "internalType": "address",
          "name": "to",
          "type": "address"
        },
        {
          "internalType": "uint256",
          "name": "tokenId",
          "type": "uint256"
        }
      ],
      "name": "safeTransferFrom",
      "outputs": [],
      "stateMutability": "payable",
      "type": "function"
    },
    {
      "inputs": [
        {
          "internalType": "address",
          "name": "from",
          "type": "address"
        },
        {
          "internalType": "address",
          "name": "to",
          "type": "address"
        },
        {
          "internalType": "uint256",
          "name": "tokenId",
          "type": "uint256"
        },
        {
          "internalType": "bytes",
          "name": "_data",
          "type": "bytes"
        }
      ],
      "name": "safeTransferFrom",
      "outputs": [],
      "stateMutability": "payable",
      "type": "function"
    },
    {
      "inputs": [
        {
          "internalType": "bool",
          "name": "_AllowListSale",
          "type": "bool"
        }
      ],
      "name": "setAllowListSale",
      "outputs": [],
      "stateMutability": "nonpayable",
      "type": "function"
    },
    {
      "inputs": [
        {
          "internalType": "address",
          "name": "operator",
          "type": "address"
        },
        {
          "internalType": "bool",
          "name": "approved",
          "type": "bool"
        }
      ],
      "name": "setApprovalForAll",
      "outputs": [],
      "stateMutability": "nonpayable",
      "type": "function"
    },
    {
      "inputs": [
        {
          "internalType": "string",
          "name": "baseTokenUri_",
          "type": "string"
        }
      ],
      "name": "setBaseTokenUri",
      "outputs": [],
      "stateMutability": "nonpayable",
      "type": "function"
    },
    {
      "inputs": [
        {
          "internalType": "bool",
          "name": "isPublicMintEnabled_",
          "type": "bool"
        }
      ],
      "name": "setisPublicMintEnabled",
      "outputs": [],
      "stateMutability": "nonpayable",
      "type": "function"
    },
    {
      "inputs": [
        {
          "internalType": "bytes4",
          "name": "interfaceId",
          "type": "bytes4"
        }
      ],
      "name": "supportsInterface",
      "outputs": [
        {
          "internalType": "bool",
          "name": "",
          "type": "bool"
        }
      ],
      "stateMutability": "view",
      "type": "function"
    },
    {
      "inputs": [],
      "name": "symbol",
      "outputs": [
        {
          "internalType": "string",
          "name": "",
          "type": "string"
        }
      ],
      "stateMutability": "view",
      "type": "function"
    },
    {
      "inputs": [
        {
          "internalType": "uint256",
          "name": "tokenId",
          "type": "uint256"
        }
      ],
      "name": "tokenURI",
      "outputs": [
        {
          "internalType": "string",
          "name": "",
          "type": "string"
        }
      ],
      "stateMutability": "view",
      "type": "function"
    },
    {
      "inputs": [
        {
          "internalType": "uint256",
          "name": "tokenId_",
          "type": "uint256"
        }
      ],
      "name": "tokenUri",
      "outputs": [
        {
          "internalType": "string",
          "name": "",
          "type": "string"
        }
      ],
      "stateMutability": "view",
      "type": "function"
    },
    {
      "inputs": [],
      "name": "totalSupply",
      "outputs": [
        {
          "internalType": "uint256",
          "name": "",
          "type": "uint256"
        }
      ],
      "stateMutability": "view",
      "type": "function"
    },
    {
      "inputs": [
        {
          "internalType": "address",
          "name": "from",
          "type": "address"
        },
        {
          "internalType": "address",
          "name": "to",
          "type": "address"
        },
        {
          "internalType": "uint256",
          "name": "tokenId",
          "type": "uint256"
        }
      ],
      "name": "transferFrom",
      "outputs": [],
      "stateMutability": "payable",
      "type": "function"
    },
    {
      "inputs": [
        {
          "internalType": "address",
          "name": "newOwner",
          "type": "address"
        }
      ],
      "name": "transferOwnership",
      "outputs": [],
      "stateMutability": "nonpayable",
      "type": "function"
    },
    {
      "inputs": [],
      "name": "withdraw",
      "outputs": [],
      "stateMutability": "nonpayable",
      "type": "function"
    },
    {
      "inputs": [],
      "name": "withdrawWallet",
      "outputs": [
        {
          "internalType": "address payable",
          "name": "",
          "type": "address"
        }
      ],
      "stateMutability": "view",
      "type": "function"
    }
  ],
  "bytecode": "0x60806040526000600d60016101000a81548160ff0219169083151502179055506040518060400160405280602081526020017f68747470733a2f2f697066732e6b69747479636f696e2e6361742f697066732f815250600e9081620000659190620004a8565b506040518060400160405280600781526020017f5469636b657473000000000000000000000000000000000000000000000000008152506040518060400160405280600381526020017f4b575400000000000000000000000000000000000000000000000000000000008152508160029081620000e39190620004a8565b508060039081620000f59190620004a8565b50620001066200015b60201b60201c565b60008190555050506200012e620001226200016060201b60201c565b6200016860201b60201c565b66d529ae9e8600006009819055506000600a81905550612710600b819055506003600c819055506200058f565b600090565b600033905090565b6000600860009054906101000a900473ffffffffffffffffffffffffffffffffffffffff16905081600860006101000a81548173ffffffffffffffffffffffffffffffffffffffff021916908373ffffffffffffffffffffffffffffffffffffffff1602179055508173ffffffffffffffffffffffffffffffffffffffff168173ffffffffffffffffffffffffffffffffffffffff167f8be0079c531659141344cd1fd0a4f28419497f9722a3daafe3b4186f6b6457e060405160405180910390a35050565b600081519050919050565b7f4e487b7100000000000000000000000000000000000000000000000000000000600052604160045260246000fd5b7f4e487b7100000000000000000000000000000000000000000000000000000000600052602260045260246000fd5b60006002820490506001821680620002b057607f821691505b602082108103620002c657620002c562000268565b5b50919050565b60008190508160005260206000209050919050565b60006020601f8301049050919050565b600082821b905092915050565b600060088302620003307fffffffffffffffffffffffffffffffffffffffffffffffffffffffffffffffff82620002f1565b6200033c8683620002f1565b95508019841693508086168417925050509392505050565b6000819050919050565b6000819050919050565b600062000389620003836200037d8462000354565b6200035e565b62000354565b9050919050565b6000819050919050565b620003a58362000368565b620003bd620003b48262000390565b848454620002fe565b825550505050565b600090565b620003d4620003c5565b620003e18184846200039a565b505050565b5b818110156200040957620003fd600082620003ca565b600181019050620003e7565b5050565b601f82111562000458576200042281620002cc565b6200042d84620002e1565b810160208510156200043d578190505b620004556200044c85620002e1565b830182620003e6565b50505b505050565b600082821c905092915050565b60006200047d600019846008026200045d565b1980831691505092915050565b60006200049883836200046a565b9150826002028217905092915050565b620004b3826200022e565b67ffffffffffffffff811115620004cf57620004ce62000239565b5b620004db825462000297565b620004e88282856200040d565b600060209050601f8311600181146200052057600084156200050b578287015190505b6200051785826200048a565b86555062000587565b601f1984166200053086620002cc565b60005b828110156200055a5784890151825560018201915060208501945060208101905062000533565b868310156200057a578489015162000576601f8916826200046a565b8355505b6001600288020188555050505b505050505050565b613725806200059f6000396000f3fe6080604052600436106101c25760003560e01c806370a08231116100f7578063a22cb46511610095578063c87b56dd11610064578063c87b56dd146105da578063e2a7169c14610617578063e985e9c514610642578063f2fde38b1461067f576101c2565b8063a22cb46514610550578063b8504aab14610579578063b88d4fde14610595578063b90aebe2146105b1576101c2565b80638da5cb5b116100d15780638da5cb5b146104b557806395652cfa146104e057806395d89b4114610509578063a0712d6814610534576101c2565b806370a0823114610436578063715018a61461047357806385d178f41461048a576101c2565b80631b22020a1161016457806342842e0e1161013e57806342842e0e1461038957806342966c68146103a55780634ed9982a146103ce5780636352211e146103f9576101c2565b80631b22020a1461031957806323b872dd146103565780633ccfd60b14610372576101c2565b8063081812fc116101a0578063081812fc14610258578063095ea7b3146102955780631675f455146102b157806318160ddd146102ee576101c2565b806301ffc9a7146101c757806304fbab9c1461020457806306fdde031461022d575b600080fd5b3480156101d357600080fd5b506101ee60048036038101906101e99190612557565b6106a8565b6040516101fb919061259f565b60405180910390f35b34801561021057600080fd5b5061022b600480360381019061022691906125e6565b61073a565b005b34801561023957600080fd5b5061024261075f565b60405161024f91906126a3565b60405180910390f35b34801561026457600080fd5b5061027f600480360381019061027a91906126fb565b6107f1565b60405161028c9190612769565b60405180910390f35b6102af60048036038101906102aa91906127b0565b610870565b005b3480156102bd57600080fd5b506102d860048036038101906102d391906126fb565b6109b4565b6040516102e591906126a3565b60405180910390f35b3480156102fa57600080fd5b50610303610a5c565b60405161031091906127ff565b60405180910390f35b34801561032557600080fd5b50610340600480360381019061033b919061281a565b610a73565b60405161034d91906127ff565b60405180910390f35b610370600480360381019061036b9190612847565b610a8b565b005b34801561037e57600080fd5b50610387610dad565b005b6103a3600480360381019061039e9190612847565b610e86565b005b3480156103b157600080fd5b506103cc60048036038101906103c791906126fb565b610ea6565b005b3480156103da57600080fd5b506103e3610eb4565b6040516103f0919061259f565b60405180910390f35b34801561040557600080fd5b50610420600480360381019061041b91906126fb565b610ec7565b60405161042d9190612769565b60405180910390f35b34801561044257600080fd5b5061045d6004803603810190610458919061281a565b610ed9565b60405161046a91906127ff565b60405180910390f35b34801561047f57600080fd5b50610488610f91565b005b34801561049657600080fd5b5061049f610fa5565b6040516104ac91906128bb565b60405180910390f35b3480156104c157600080fd5b506104ca610fcb565b6040516104d79190612769565b60405180910390f35b3480156104ec57600080fd5b506105076004803603810190610502919061293b565b610ff5565b005b34801561051557600080fd5b5061051e611013565b60405161052b91906126a3565b60405180910390f35b61054e600480360381019061054991906126fb565b6110a5565b005b34801561055c57600080fd5b5061057760048036038101906105729190612988565b61130f565b005b610593600480360381019061058e91906126fb565b61141a565b005b6105af60048036038101906105aa9190612af8565b611684565b005b3480156105bd57600080fd5b506105d860048036038101906105d391906125e6565b6116f7565b005b3480156105e657600080fd5b5061060160048036038101906105fc91906126fb565b61171c565b60405161060e91906126a3565b60405180910390f35b34801561062357600080fd5b5061062c6117ba565b604051610639919061259f565b60405180910390f35b34801561064e57600080fd5b5061066960048036038101906106649190612b7b565b6117cd565b604051610676919061259f565b60405180910390f35b34801561068b57600080fd5b506106a660048036038101906106a1919061281a565b611861565b005b60006301ffc9a760e01b827bffffffffffffffffffffffffffffffffffffffffffffffffffffffff1916148061070357506380ac58cd60e01b827bffffffffffffffffffffffffffffffffffffffffffffffffffffffff1916145b806107335750635b5e139f60e01b827bffffffffffffffffffffffffffffffffffffffffffffffffffffffff1916145b9050919050565b6107426118e4565b80600d60026101000a81548160ff02191690831515021790555050565b60606002805461076e90612bea565b80601f016020809104026020016040519081016040528092919081815260200182805461079a90612bea565b80156107e75780601f106107bc576101008083540402835291602001916107e7565b820191906000526020600020905b8154815290600101906020018083116107ca57829003601f168201915b5050505050905090565b60006107fc82611962565b610832576040517fcf4700e400000000000000000000000000000000000000000000000000000000815260040160405180910390fd5b6006600083815260200190815260200160002060000160009054906101000a900473ffffffffffffffffffffffffffffffffffffffff169050919050565b600061087b82610ec7565b90508073ffffffffffffffffffffffffffffffffffffffff1661089c6119c1565b73ffffffffffffffffffffffffffffffffffffffff16146108ff576108c8816108c36119c1565b6117cd565b6108fe576040517fcfb3b94200000000000000000000000000000000000000000000000000000000815260040160405180910390fd5b5b826006600084815260200190815260200160002060000160006101000a81548173ffffffffffffffffffffffffffffffffffffffff021916908373ffffffffffffffffffffffffffffffffffffffff160217905550818373ffffffffffffffffffffffffffffffffffffffff168273ffffffffffffffffffffffffffffffffffffffff167f8c5be1e5ebec7d5bd14f71427d1e84f3dd0314c0f7b2291e5b200ac8c7c3b92560405160405180910390a4505050565b60606109bf82611962565b6109fe576040517f08c379a00000000000000000000000000000000000000000000000000000000081526004016109f590612c67565b60405180910390fd5b6000600e8054610a0d90612bea565b905011610a295760405180602001604052806000815250610a55565b600e610a34836119c9565b604051602001610a45929190612da7565b6040516020818303038152906040525b9050919050565b6000610a66611a97565b6001546000540303905090565b60106020528060005260406000206000915090505481565b6000610a9682611a9c565b90508373ffffffffffffffffffffffffffffffffffffffff168173ffffffffffffffffffffffffffffffffffffffff1614610afd576040517fa114810000000000000000000000000000000000000000000000000000000000815260040160405180910390fd5b600080610b0984611b68565b91509150610b1f8187610b1a6119c1565b611b8f565b610b6b57610b3486610b2f6119c1565b6117cd565b610b6a576040517f59c896be00000000000000000000000000000000000000000000000000000000815260040160405180910390fd5b5b600073ffffffffffffffffffffffffffffffffffffffff168573ffffffffffffffffffffffffffffffffffffffff1603610bd1576040517fea553b3400000000000000000000000000000000000000000000000000000000815260040160405180910390fd5b610bde8686866001611bd3565b8015610be957600082555b600560008773ffffffffffffffffffffffffffffffffffffffff1673ffffffffffffffffffffffffffffffffffffffff168152602001908152602001600020600081546001900391905081905550600560008673ffffffffffffffffffffffffffffffffffffffff1673ffffffffffffffffffffffffffffffffffffffff1681526020019081526020016000206000815460010191905081905550610cb785610c93888887611bd9565b7c020000000000000000000000000000000000000000000000000000000017611c01565b600460008681526020019081526020016000208190555060007c0200000000000000000000000000000000000000000000000000000000841603610d3d5760006001850190506000600460008381526020019081526020016000205403610d3b576000548114610d3a578360046000838152602001908152602001600020819055505b5b505b838573ffffffffffffffffffffffffffffffffffffffff168773ffffffffffffffffffffffffffffffffffffffff167fddf252ad1be2c89b69c2b068fc378daa952ba7f163c4a11628f55a4df523b3ef60405160405180910390a4610da58686866001611c2c565b505050505050565b610db56118e4565b6000600f60009054906101000a900473ffffffffffffffffffffffffffffffffffffffff1673ffffffffffffffffffffffffffffffffffffffff1647604051610dfd90612e07565b60006040518083038185875af1925050503d8060008114610e3a576040519150601f19603f3d011682016040523d82523d6000602084013e610e3f565b606091505b5050905080610e83576040517f08c379a0000000000000000000000000000000000000000000000000000000008152600401610e7a90612e68565b60405180910390fd5b50565b610ea183838360405180602001604052806000815250611684565b505050565b610eb1816001611c32565b50565b600d60029054906101000a900460ff1681565b6000610ed282611a9c565b9050919050565b60008073ffffffffffffffffffffffffffffffffffffffff168273ffffffffffffffffffffffffffffffffffffffff1603610f40576040517f8f4eb60400000000000000000000000000000000000000000000000000000000815260040160405180910390fd5b67ffffffffffffffff600560008473ffffffffffffffffffffffffffffffffffffffff1673ffffffffffffffffffffffffffffffffffffffff16815260200190815260200160002054169050919050565b610f996118e4565b610fa36000611e84565b565b600f60009054906101000a900473ffffffffffffffffffffffffffffffffffffffff1681565b6000600860009054906101000a900473ffffffffffffffffffffffffffffffffffffffff16905090565b610ffd6118e4565b8181600e918261100e92919061302a565b505050565b60606003805461102290612bea565b80601f016020809104026020016040519081016040528092919081815260200182805461104e90612bea565b801561109b5780601f106110705761010080835404028352916020019161109b565b820191906000526020600020905b81548152906001019060200180831161107e57829003601f168201915b5050505050905090565b3373ffffffffffffffffffffffffffffffffffffffff163273ffffffffffffffffffffffffffffffffffffffff1614611113576040517f08c379a000000000000000000000000000000000000000000000000000000000815260040161110a9061316c565b60405180910390fd5b600d60009054906101000a900460ff16611162576040517f08c379a0000000000000000000000000000000000000000000000000000000008152600401611159906131d8565b60405180910390fd5b600954816111709190613227565b34146111b1576040517f08c379a00000000000000000000000000000000000000000000000000000000081526004016111a8906132b5565b60405180910390fd5b600b5481600a546111c291906132d5565b1115611203576040517f08c379a00000000000000000000000000000000000000000000000000000000081526004016111fa90613355565b60405180910390fd5b600c5481601060003373ffffffffffffffffffffffffffffffffffffffff1673ffffffffffffffffffffffffffffffffffffffff1681526020019081526020016000205461125191906132d5565b1115611292576040517f08c379a0000000000000000000000000000000000000000000000000000000008152600401611289906133c1565b60405180910390fd5b600c548161129f33610ed9565b6112a991906132d5565b11156112ea576040517f08c379a00000000000000000000000000000000000000000000000000000000081526004016112e190613453565b60405180910390fd5b600a60008154809291906112fd90613473565b919050555061130c3382611f4a565b50565b806007600061131c6119c1565b73ffffffffffffffffffffffffffffffffffffffff1673ffffffffffffffffffffffffffffffffffffffff16815260200190815260200160002060008473ffffffffffffffffffffffffffffffffffffffff1673ffffffffffffffffffffffffffffffffffffffff16815260200190815260200160002060006101000a81548160ff0219169083151502179055508173ffffffffffffffffffffffffffffffffffffffff166113c96119c1565b73ffffffffffffffffffffffffffffffffffffffff167f17307eab39ab6107e8899845ad3d59bd9653f200f220920489ca2b5937696c318360405161140e919061259f565b60405180910390a35050565b3373ffffffffffffffffffffffffffffffffffffffff163273ffffffffffffffffffffffffffffffffffffffff1614611488576040517f08c379a000000000000000000000000000000000000000000000000000000000815260040161147f9061316c565b60405180910390fd5b600d60029054906101000a900460ff166114d7576040517f08c379a00000000000000000000000000000000000000000000000000000000081526004016114ce906131d8565b60405180910390fd5b600954816114e59190613227565b3414611526576040517f08c379a000000000000000000000000000000000000000000000000000000000815260040161151d906132b5565b60405180910390fd5b600b5481600a5461153791906132d5565b1115611578576040517f08c379a000000000000000000000000000000000000000000000000000000000815260040161156f90613355565b60405180910390fd5b600c5481601060003373ffffffffffffffffffffffffffffffffffffffff1673ffffffffffffffffffffffffffffffffffffffff168152602001908152602001600020546115c691906132d5565b1115611607576040517f08c379a00000000000000000000000000000000000000000000000000000000081526004016115fe906133c1565b60405180910390fd5b600c548161161433610ed9565b61161e91906132d5565b111561165f576040517f08c379a000000000000000000000000000000000000000000000000000000000815260040161165690613453565b60405180910390fd5b600a600081548092919061167290613473565b91905055506116813382611f4a565b50565b61168f848484610a8b565b60008373ffffffffffffffffffffffffffffffffffffffff163b146116f1576116ba84848484611f68565b6116f0576040517fd1a57ed600000000000000000000000000000000000000000000000000000000815260040160405180910390fd5b5b50505050565b6116ff6118e4565b80600d60006101000a81548160ff02191690831515021790555050565b606061172782611962565b61175d576040517fa14c4b5000000000000000000000000000000000000000000000000000000000815260040160405180910390fd5b60006117676120b8565b9050600081510361178757604051806020016040528060008152506117b2565b80611791846120cf565b6040516020016117a29291906134bb565b6040516020818303038152906040525b915050919050565b600d60019054906101000a900460ff1681565b6000600760008473ffffffffffffffffffffffffffffffffffffffff1673ffffffffffffffffffffffffffffffffffffffff16815260200190815260200160002060008373ffffffffffffffffffffffffffffffffffffffff1673ffffffffffffffffffffffffffffffffffffffff16815260200190815260200160002060009054906101000a900460ff16905092915050565b6118696118e4565b600073ffffffffffffffffffffffffffffffffffffffff168173ffffffffffffffffffffffffffffffffffffffff16036118d8576040517f08c379a00000000000000000000000000000000000000000000000000000000081526004016118cf90613551565b60405180910390fd5b6118e181611e84565b50565b6118ec61211f565b73ffffffffffffffffffffffffffffffffffffffff1661190a610fcb565b73ffffffffffffffffffffffffffffffffffffffff1614611960576040517f08c379a0000000000000000000000000000000000000000000000000000000008152600401611957906135bd565b60405180910390fd5b565b60008161196d611a97565b1115801561197c575060005482105b80156119ba575060007c0100000000000000000000000000000000000000000000000000000000600460008581526020019081526020016000205416145b9050919050565b600033905090565b6060600060016119d884612127565b01905060008167ffffffffffffffff8111156119f7576119f66129cd565b5b6040519080825280601f01601f191660200182016040528015611a295781602001600182028036833780820191505090505b509050600082602001820190505b600115611a8c578080600190039150507f3031323334353637383961626364656600000000000000000000000000000000600a86061a8153600a8581611a8057611a7f6135dd565b5b04945060008503611a37575b819350505050919050565b600090565b60008082905080611aab611a97565b11611b3157600054811015611b305760006004600083815260200190815260200160002054905060007c0100000000000000000000000000000000000000000000000000000000821603611b2e575b60008103611b24576004600083600190039350838152602001908152602001600020549050611afa565b8092505050611b63565b505b5b6040517fdf2d9b4200000000000000000000000000000000000000000000000000000000815260040160405180910390fd5b919050565b60008060006006600085815260200190815260200160002090508092508254915050915091565b600073ffffffffffffffffffffffffffffffffffffffff8316925073ffffffffffffffffffffffffffffffffffffffff821691508382148383141790509392505050565b50505050565b60008060e883901c905060e8611bf086868461227a565b62ffffff16901b9150509392505050565b600073ffffffffffffffffffffffffffffffffffffffff83169250814260a01b178317905092915050565b50505050565b6000611c3d83611a9c565b90506000819050600080611c5086611b68565b915091508415611cb957611c6c8184611c676119c1565b611b8f565b611cb857611c8183611c7c6119c1565b6117cd565b611cb7576040517f59c896be00000000000000000000000000000000000000000000000000000000815260040160405180910390fd5b5b5b611cc7836000886001611bd3565b8015611cd257600082555b600160806001901b03600560008573ffffffffffffffffffffffffffffffffffffffff1673ffffffffffffffffffffffffffffffffffffffff16815260200190815260200160002060008282540192505081905550611d7a83611d3785600088611bd9565b7c02000000000000000000000000000000000000000000000000000000007c01000000000000000000000000000000000000000000000000000000001717611c01565b600460008881526020019081526020016000208190555060007c0200000000000000000000000000000000000000000000000000000000851603611e005760006001870190506000600460008381526020019081526020016000205403611dfe576000548114611dfd578460046000838152602001908152602001600020819055505b5b505b85600073ffffffffffffffffffffffffffffffffffffffff168473ffffffffffffffffffffffffffffffffffffffff167fddf252ad1be2c89b69c2b068fc378daa952ba7f163c4a11628f55a4df523b3ef60405160405180910390a4611e6a836000886001611c2c565b600160008154809291906001019190505550505050505050565b6000600860009054906101000a900473ffffffffffffffffffffffffffffffffffffffff16905081600860006101000a81548173ffffffffffffffffffffffffffffffffffffffff021916908373ffffffffffffffffffffffffffffffffffffffff1602179055508173ffffffffffffffffffffffffffffffffffffffff168173ffffffffffffffffffffffffffffffffffffffff167f8be0079c531659141344cd1fd0a4f28419497f9722a3daafe3b4186f6b6457e060405160405180910390a35050565b611f64828260405180602001604052806000815250612283565b5050565b60008373ffffffffffffffffffffffffffffffffffffffff1663150b7a02611f8e6119c1565b8786866040518563ffffffff1660e01b8152600401611fb09493929190613661565b6020604051808303816000875af1925050508015611fec57506040513d601f19601f82011682018060405250810190611fe991906136c2565b60015b612065573d806000811461201c576040519150601f19603f3d011682016040523d82523d6000602084013e612021565b606091505b50600081510361205d576040517fd1a57ed600000000000000000000000000000000000000000000000000000000815260040160405180910390fd5b805181602001fd5b63150b7a0260e01b7bffffffffffffffffffffffffffffffffffffffffffffffffffffffff1916817bffffffffffffffffffffffffffffffffffffffffffffffffffffffff191614915050949350505050565b606060405180602001604052806000815250905090565b606060a060405101806040526020810391506000825281835b60011561210a57600184039350600a81066030018453600a81049050806120e8575b50828103602084039350808452505050919050565b600033905090565b600080600090507a184f03e93ff9f4daa797ed6e38ed64bf6a1f0100000000000000008310612185577a184f03e93ff9f4daa797ed6e38ed64bf6a1f010000000000000000838161217b5761217a6135dd565b5b0492506040810190505b6d04ee2d6d415b85acef810000000083106121c2576d04ee2d6d415b85acef810000000083816121b8576121b76135dd565b5b0492506020810190505b662386f26fc1000083106121f157662386f26fc1000083816121e7576121e66135dd565b5b0492506010810190505b6305f5e100831061221a576305f5e10083816122105761220f6135dd565b5b0492506008810190505b612710831061223f576127108381612235576122346135dd565b5b0492506004810190505b606483106122625760648381612258576122576135dd565b5b0492506002810190505b600a8310612271576001810190505b80915050919050565b60009392505050565b61228d8383612320565b60008373ffffffffffffffffffffffffffffffffffffffff163b1461231b57600080549050600083820390505b6122cd6000868380600101945086611f68565b612303576040517fd1a57ed600000000000000000000000000000000000000000000000000000000815260040160405180910390fd5b8181106122ba57816000541461231857600080fd5b50505b505050565b60008054905060008203612360576040517fb562e8dd00000000000000000000000000000000000000000000000000000000815260040160405180910390fd5b61236d6000848385611bd3565b600160406001901b178202600560008573ffffffffffffffffffffffffffffffffffffffff1673ffffffffffffffffffffffffffffffffffffffff168152602001908152602001600020600082825401925050819055506123e4836123d56000866000611bd9565b6123de856124db565b17611c01565b6004600083815260200190815260200160002081905550600080838301905073ffffffffffffffffffffffffffffffffffffffff85169150828260007fddf252ad1be2c89b69c2b068fc378daa952ba7f163c4a11628f55a4df523b3ef600080a4600183015b81811461248557808360007fddf252ad1be2c89b69c2b068fc378daa952ba7f163c4a11628f55a4df523b3ef600080a460018101905061244a565b50600082036124c0576040517f2e07630000000000000000000000000000000000000000000000000000000000815260040160405180910390fd5b8060008190555050506124d66000848385611c2c565b505050565b60006001821460e11b9050919050565b6000604051905090565b600080fd5b600080fd5b60007fffffffff0000000000000000000000000000000000000000000000000000000082169050919050565b612534816124ff565b811461253f57600080fd5b50565b6000813590506125518161252b565b92915050565b60006020828403121561256d5761256c6124f5565b5b600061257b84828501612542565b91505092915050565b60008115159050919050565b61259981612584565b82525050565b60006020820190506125b46000830184612590565b92915050565b6125c381612584565b81146125ce57600080fd5b50565b6000813590506125e0816125ba565b92915050565b6000602082840312156125fc576125fb6124f5565b5b600061260a848285016125d1565b91505092915050565b600081519050919050565b600082825260208201905092915050565b60005b8381101561264d578082015181840152602081019050612632565b60008484015250505050565b6000601f19601f8301169050919050565b600061267582612613565b61267f818561261e565b935061268f81856020860161262f565b61269881612659565b840191505092915050565b600060208201905081810360008301526126bd818461266a565b905092915050565b6000819050919050565b6126d8816126c5565b81146126e357600080fd5b50565b6000813590506126f5816126cf565b92915050565b600060208284031215612711576127106124f5565b5b600061271f848285016126e6565b91505092915050565b600073ffffffffffffffffffffffffffffffffffffffff82169050919050565b600061275382612728565b9050919050565b61276381612748565b82525050565b600060208201905061277e600083018461275a565b92915050565b61278d81612748565b811461279857600080fd5b50565b6000813590506127aa81612784565b92915050565b600080604083850312156127c7576127c66124f5565b5b60006127d58582860161279b565b92505060206127e6858286016126e6565b9150509250929050565b6127f9816126c5565b82525050565b600060208201905061281460008301846127f0565b92915050565b6000602082840312156128305761282f6124f5565b5b600061283e8482850161279b565b91505092915050565b6000806000606084860312156128605761285f6124f5565b5b600061286e8682870161279b565b935050602061287f8682870161279b565b9250506040612890868287016126e6565b9150509250925092565b60006128a582612728565b9050919050565b6128b58161289a565b82525050565b60006020820190506128d060008301846128ac565b92915050565b600080fd5b600080fd5b600080fd5b60008083601f8401126128fb576128fa6128d6565b5b8235905067ffffffffffffffff811115612918576129176128db565b5b602083019150836001820283011115612934576129336128e0565b5b9250929050565b60008060208385031215612952576129516124f5565b5b600083013567ffffffffffffffff8111156129705761296f6124fa565b5b61297c858286016128e5565b92509250509250929050565b6000806040838503121561299f5761299e6124f5565b5b60006129ad8582860161279b565b92505060206129be858286016125d1565b9150509250929050565b600080fd5b7f4e487b7100000000000000000000000000000000000000000000000000000000600052604160045260246000fd5b612a0582612659565b810181811067ffffffffffffffff82111715612a2457612a236129cd565b5b80604052505050565b6000612a376124eb565b9050612a4382826129fc565b919050565b600067ffffffffffffffff821115612a6357612a626129cd565b5b612a6c82612659565b9050602081019050919050565b82818337600083830152505050565b6000612a9b612a9684612a48565b612a2d565b905082815260208101848484011115612ab757612ab66129c8565b5b612ac2848285612a79565b509392505050565b600082601f830112612adf57612ade6128d6565b5b8135612aef848260208601612a88565b91505092915050565b60008060008060808587031215612b1257612b116124f5565b5b6000612b208782880161279b565b9450506020612b318782880161279b565b9350506040612b42878288016126e6565b925050606085013567ffffffffffffffff811115612b6357612b626124fa565b5b612b6f87828801612aca565b91505092959194509250565b60008060408385031215612b9257612b916124f5565b5b6000612ba08582860161279b565b9250506020612bb18582860161279b565b9150509250929050565b7f4e487b7100000000000000000000000000000000000000000000000000000000600052602260045260246000fd5b60006002820490506001821680612c0257607f821691505b602082108103612c1557612c14612bbb565b5b50919050565b7f546f6b656e20646f6573206e6f74206578697374000000000000000000000000600082015250565b6000612c5160148361261e565b9150612c5c82612c1b565b602082019050919050565b60006020820190508181036000830152612c8081612c44565b9050919050565b600081905092915050565b60008190508160005260206000209050919050565b60008154612cb481612bea565b612cbe8186612c87565b94506001821660008114612cd95760018114612cee57612d21565b60ff1983168652811515820286019350612d21565b612cf785612c92565b60005b83811015612d1957815481890152600182019150602081019050612cfa565b838801955050505b50505092915050565b6000612d3582612613565b612d3f8185612c87565b9350612d4f81856020860161262f565b80840191505092915050565b7f2e6a736f6e000000000000000000000000000000000000000000000000000000600082015250565b6000612d91600583612c87565b9150612d9c82612d5b565b600582019050919050565b6000612db38285612ca7565b9150612dbf8284612d2a565b9150612dca82612d84565b91508190509392505050565b600081905092915050565b50565b6000612df1600083612dd6565b9150612dfc82612de1565b600082019050919050565b6000612e1282612de4565b9150819050919050565b7f7769746864726177206661696c65640000000000000000000000000000000000600082015250565b6000612e52600f8361261e565b9150612e5d82612e1c565b602082019050919050565b60006020820190508181036000830152612e8181612e45565b9050919050565b600082905092915050565b60006020601f8301049050919050565b600082821b905092915050565b600060088302612ee07fffffffffffffffffffffffffffffffffffffffffffffffffffffffffffffffff82612ea3565b612eea8683612ea3565b95508019841693508086168417925050509392505050565b6000819050919050565b6000612f27612f22612f1d846126c5565b612f02565b6126c5565b9050919050565b6000819050919050565b612f4183612f0c565b612f55612f4d82612f2e565b848454612eb0565b825550505050565b600090565b612f6a612f5d565b612f75818484612f38565b505050565b5b81811015612f9957612f8e600082612f62565b600181019050612f7b565b5050565b601f821115612fde57612faf81612c92565b612fb884612e93565b81016020851015612fc7578190505b612fdb612fd385612e93565b830182612f7a565b50505b505050565b600082821c905092915050565b600061300160001984600802612fe3565b1980831691505092915050565b600061301a8383612ff0565b9150826002028217905092915050565b6130348383612e88565b67ffffffffffffffff81111561304d5761304c6129cd565b5b6130578254612bea565b613062828285612f9d565b6000601f831160018114613091576000841561307f578287013590505b613089858261300e565b8655506130f1565b601f19841661309f86612c92565b60005b828110156130c7578489013582556001820191506020850194506020810190506130a2565b868310156130e457848901356130e0601f891682612ff0565b8355505b6001600288020188555050505b50505050505050565b7f4b6974747920576f726c64205469636b657473203a3a2043616e6e6f7420626560008201527f2063616c6c6564206279206120636f6e74726163740000000000000000000000602082015250565b600061315660358361261e565b9150613161826130fa565b604082019050919050565b6000602082019050818103600083015261318581613149565b9050919050565b7f6d696e74696e67206e6f742063757272656e746c7920656e61626c6564000000600082015250565b60006131c2601d8361261e565b91506131cd8261318c565b602082019050919050565b600060208201905081810360008301526131f1816131b5565b9050919050565b7f4e487b7100000000000000000000000000000000000000000000000000000000600052601160045260246000fd5b6000613232826126c5565b915061323d836126c5565b925082820261324b816126c5565b91508282048414831517613262576132616131f8565b5b5092915050565b7f77726f6e6720616d6f756e740000000000000000000000000000000000000000600082015250565b600061329f600c8361261e565b91506132aa82613269565b602082019050919050565b600060208201905081810360008301526132ce81613292565b9050919050565b60006132e0826126c5565b91506132eb836126c5565b9250828201905080821115613303576133026131f8565b5b92915050565b7f736f6c64206f7574000000000000000000000000000000000000000000000000600082015250565b600061333f60088361261e565b915061334a82613309565b602082019050919050565b6000602082019050818103600083015261336e81613332565b9050919050565b7f657863656564206d6178206d696e747320666f7220746869732077616c6c6574600082015250565b60006133ab60208361261e565b91506133b682613375565b602082019050919050565b600060208201905081810360008301526133da8161339e565b9050919050565b7f77616c6c65742063616e6e6f74206d696e74206d6f7265207468616e2033207460008201527f6f74616c00000000000000000000000000000000000000000000000000000000602082015250565b600061343d60248361261e565b9150613448826133e1565b604082019050919050565b6000602082019050818103600083015261346c81613430565b9050919050565b600061347e826126c5565b91507fffffffffffffffffffffffffffffffffffffffffffffffffffffffffffffffff82036134b0576134af6131f8565b5b600182019050919050565b60006134c78285612d2a565b91506134d38284612d2a565b91508190509392505050565b7f4f776e61626c653a206e6577206f776e657220697320746865207a65726f206160008201527f6464726573730000000000000000000000000000000000000000000000000000602082015250565b600061353b60268361261e565b9150613546826134df565b604082019050919050565b6000602082019050818103600083015261356a8161352e565b9050919050565b7f4f776e61626c653a2063616c6c6572206973206e6f7420746865206f776e6572600082015250565b60006135a760208361261e565b91506135b282613571565b602082019050919050565b600060208201905081810360008301526135d68161359a565b9050919050565b7f4e487b7100000000000000000000000000000000000000000000000000000000600052601260045260246000fd5b600081519050919050565b600082825260208201905092915050565b60006136338261360c565b61363d8185613617565b935061364d81856020860161262f565b61365681612659565b840191505092915050565b6000608082019050613676600083018761275a565b613683602083018661275a565b61369060408301856127f0565b81810360608301526136a28184613628565b905095945050505050565b6000815190506136bc8161252b565b92915050565b6000602082840312156136d8576136d76124f5565b5b60006136e6848285016136ad565b9150509291505056fea264697066735822122007582a86b2d5944f629b7a3126b3bb74f52443176af83df2d52345ed693e7e0d64736f6c63430008110033",
  "linkReferences": {},
  "deployedLinkReferences": {}
}